:020000040800F2
:1000000008040020010100080D0600080906000888
:100010000B060008750100086D0D000800000000C7
:10002000000000000000000000000000BB07000806
:100030007701000800000000F906000865080008C4
:100040001B0100081B0100081B0100081B01000820
:100050001B0100081B0100081B0100081B01000810
:100060001B0100081B0100081B0100081B01000800
:100070001B0100081B0100081B0100081B010008F0
:100080001B0100081B0100081B0100081B010008E0
:100090001B0100081B0100081B0100081B010008D0
:1000A0001B0100081B0100081B0100081B010008C0
:1000B0001B010008B9080008FD0800081B01000822
:1000C0001B0100081B0100081B0100081B010008A0
:1000D0001B0100081B0100081B0100081B01000890
:1000E0001B0100081B0100081B010008DFF80CD0F1
:1000F00000F02EF800480047B70F00080804002061
:100100000648804706480047FEE7FEE7FEE7FEE7B1
:10011000FEE7FEE7FEE7FEE7FEE7FEE76908000808
:10012000ED00000830B50B460146002020220124D6
:1001300009E021FA02F59D4205D303FA02F5491BB5
:1001400004FA02F52844151EA2F10102F1DC30BDCB
:10015000064C074D06E0E06840F0010394E8070014
:1001600098471034AC42F6D3FFF7C4FF9C10000848
:10017000BC100008FEE7704738B548208DF8030032
:1001800003248DF8024020030B4DADF800006946B2
:10019000284600F015F810218DF803108DF8024064
:1001A000A003ADF800006946284600F009F80121D7
:1001B000024800F0AFF838BD0010014000023000E6
:1001C0002DE9F0410446464800260D46844215D0EC
:1001D0004448844212D0444884420FD04348844269
:1001E0000CD04348844209D04248844206D0424859
:1001F000844203D0B22141A000F0B6FEE87888B175
:1002000004280FD028280DD048280BD0142809D056
:10021000102807D01C2805D0182803D0B32137A0F8
:1002200000F0A2FE288818B9B42134A000F09CFE8A
:10023000E87800F00F07C0060CD5A878012807D091
:10024000022805D0032803D0BB212CA000F08CFE8F
:10025000A878074328784FF00F0C10F0FF0F4FF0ED
:10026000010E1BD021682A880EFA06F00240824255
:1002700010D1B2000CFA02F321EA030307FA02F1EB
:10028000EA781943282A02D0482A02D002E06061A5
:1002900000E02061761C082EE5D321602888FF2825
:1002A0001CD96168002000F108030EFA03F22B88C4
:1002B000134093420ED183000CFA03F6B14307FAC0
:1002C00003F6EB783143282B00D16261EB78482BA1
:1002D00000D12261401C0828E5D36160BDE8F081AF
:1002E00000080140000C01400010014000140140D2
:1002F00000180140001C0140002001407372635C43
:1003000073746D3332663130785F6770696F2E6356
:10031000000000002DE9F0410D46044601287DD083
:10032000022C7BD0042C79D0082C77D0A4F5A01017
:10033000103873D0A4F5A01030386FD0A4F5B010E9
:1003400040386BD0A4F5B010C0387DD057488442F7
:100350007AD05748844277D05648844274D0564861
:10036000844271D0554884426ED0B4F5805F6BD022
:10037000B4F5EA1F68D0B4F5EB1F65D0B4F5004FB3
:1003800062D06FF40010C4425ED0A4F50010801E4D
:100390005AD0A4F50010001F56D0A4F5001008385C
:1003A00052D0A4F5001010384ED0B4F1201F4BD01D
:1003B000A4F50010403847D04148844244D0414819
:1003C000844241D0404884423ED0404884423BD0A1
:1003D0003F48844238D0B4F5011F35D06FF000405B
:1003E000C44231D0C01C84422ED0801C84422BD009
:1003F000001D844228D03748844225D0354810302B
:10040000844221D03348303084421DD0314870308E
:10041000844219D02F48F030844200E014E013D019
:100420002D48844210D02D4884420DD02C4884425F
:100430000AD02C48844207D02B48844204D040F292
:100440002A212AA000F090FD35B1012D04D040F200
:100450002B2126A000F088FD2A49002C01DACA6968
:1004600000E04A68630D1E01A3B2C4F30157B34014
:10047000C4F30340032F05D0E6020AD503268640C5
:10048000B24307E022F070604A6822F070624A606E
:1004900002E09A4342F0706005B11843002C02DA82
:1004A000C861BDE8F0814860FBE70000000118006A
:1004B000000218000003180000081A00000C1A00BF
:1004C0000001300000023000000430000011200064
:1004D0000020200010000080000200800004008046
:1004E0000008008000100080002000807372635CB0
:1004F00073746D3332663130785F6770696F2E6365
:10050000000000000000014070B5044611480D468F
:10051000844216D01048844213D01048844210D030
:100520000F4884420DD00F4884420AD00E488442BE
:1005300007D00E48844204D040F279110CA000F09C
:1005400013FD25B94FF4BD7109A000F00DFD6561E3
:1005500070BD000000080140000C01400010014087
:100560000014014000180140001C0140002001401F
:100570007372635C73746D3332663130785F6770A9
:10058000696F2E630000000070B5044611480D46E7
:10059000844216D01048844213D01048844210D0B0
:1005A0000F4884420DD00F4884420AD00E4884423E
:1005B00007D00E48844204D040F269110CA000F02C
:1005C000D3FC25B94FF4B57109A000F0CDFC25612D
:1005D00070BD000000080140000C01400010014007
:1005E0000014014000180140001C0140002001409F
:1005F0007372635C73746D3332663130785F677029
:10060000696F2E6300000000FEE7FEE77047000000
:1006100070B50446C0780F2528B1012803D0752194
:100620001FA000F0A1FC6078102803D376211CA045
:1006300000F09AFCA078102803D3772118A000F0CE
:1006400093FCE0780122F8B118480068617800F462
:10065000E060C0F5E060000AC0F10403C540A07886
:100660009940284008432178000101F1E02181F8F8
:100670000004207800F01F018A404009800000F14A
:10068000E020C0F8002170BD207800F01F018A40F2
:100690004009800000F1E020C0F8802170BD00001A
:1006A0007372635C6D6973632E6300000CED00E090
:1006B00010B50446B0F5E06F0FD0B4F5C06F0CD0A4
:1006C000B4F5A06F09D0B4F5806F06D0B4F5407FC3
:1006D00003D0632103A000F047FC0548044305480C
:1006E000046010BD7372635C6D6973632E630000F8
:1006F0000000FA050CED00E07047000070B50446FC
:100700000C480D46044200D124B940F269410AA0C8
:1007100000F02AFC0D4E4DB1012D04D040F26A418B
:1007200005A000F021FCF069204301E0F069A0433E
:10073000F06170BD003601817372635C73746D3358
:1007400032663130785F7263632E630000100240BE
:1007500070B504460C480D46044200D124B940F25D
:100760004A410AA000F000FC0D4E4DB1012D04D00D
:1007700040F24B4105A000F0F7FBB069204301E0D7
:10078000B069A043B06170BD0200C0FF7372635CCA
:1007900073746D3332663130785F7263632E630039
:1007A0000010024010B501211120FFF7D1FF0121F7
:1007B000BDE810400620FFF7A1BF70470CB500222E
:1007C000264800920192016841F4803101604FF4A3
:1007D000A063016801F4003101910099491C009166
:1007E000019911B900999942F3D10168890333D570
:1007F000012101911A490A6842F010020A600A6850
:1008000022F003020A600A6842F002020A604168AC
:10081000416041684160416841F4806141604168E4
:1008200021F47C114160416841F4E81141600168A4
:1008300041F08071016001688901FCD5416821F0B7
:1008400003014160416841F0020141604168C1F328
:1008500081010229FAD10CBD01920CBD00100240A9
:1008600000200240704700000F4810B5016841F0B9
:100870000101016041680D4A1140416001680C4A64
:1008800011400160016821F480210160416821F478
:10089000FE0141604FF41F018160FFF78FFF0549A2
:1008A0004FF00060086010BD001002400000FFF82B
:1008B000FFFFF6FE08ED00E010B501210C4800F046
:1008C0003BF80C490878FF280CD0401C0870C2B2D5
:1008D0004B7809484FF440419A4205D2BDE8104098
:1008E000FFF752BE0020F1E7BDE81040FFF70CBE55
:1008F00000040040000000200010014010B501215C
:100900000A4800F019F80A4B0A484FF400711A78A7
:10091000012A05D0521C1A70BDE81040FFF7F4BD43
:1009200000221A70BDE81040FFF72EBE00080040FC
:10093000000000200008014070B5044621480D4623
:10094000844234D0B4F1804F31D01F4884422ED03D
:100950001E4884422BD01E48844228D01D48844221
:1009600025D01D48844222D01C4884421FD01C48F8
:1009700084421CD01B48844219D01B48844216D0A4
:100980001A48844213D01A48844210D0194884422D
:100990000DD0194884420AD01848844207D018481C
:1009A000844204D040F6772116A000F0DDFA280A30
:1009B00000D125B940F6782112A000F0D5FAE8431D
:1009C000208270BD002C014000040040000800405F
:1009D000000C0040001000400014004000340140B2
:1009E000004C0140005001400054014000180040FC
:1009F000001C004000200040004001400044014035
:100A0000004801407372635C73746D333266313039
:100A1000785F74696D2E630070B5044624480D46F6
:100A2000844234D0B4F1804F31D0224884422ED059
:100A3000214884422BD02148844228D02048844237
:100A400025D02048844222D01F4884421FD01F480E
:100A500084421CD01E48844219D01E48844216D0BD
:100A60001D48844213D01D48844210D01C48844243
:100A70000DD01C4884420AD01B48844207D01B4832
:100A8000844204D040F2293119A000F06DFA55B12A
:100A9000012D04D040F22A3115A000F065FA20881B
:100AA00040F0010002E0208820F00100208070BDAD
:100AB000002C01400004004000080040000C0040F1
:100AC000001000400014004000340140004C014080
:100AD000005001400054014000180040001C00403C
:100AE0000020004000400140004401400048014017
:100AF0007372635C73746D3332663130785F74691E
:100B00006D2E630070B50446284816460D46844293
:100B100034D0B4F1804F31D0254884422ED02548BE
:100B200084422BD02448844228D02448844225D0B3
:100B30002348844222D0234884421FD02248844242
:100B40001CD02248844219D02148844216D0214822
:100B5000844213D02048844210D0204884420DD0D3
:100B60001F4884420AD01F48844207D01E4884424E
:100B700004D040F26B311DA000F0F6F9280A00D134
:100B800025B94FF45B7119A000F0EEF94EB1012EBA
:100B900004D040F26D3115A000F0E6F9A089284399
:100BA00001E0A089A843A08170BD0000002C014095
:100BB0000004004000080040000C0040001000400D
:100BC0000014004000340140004C0140005001403E
:100BD0000054014000180040001C0040002000406C
:100BE0000040014000440140004801407372635CD2
:100BF00073746D3332663130785F74696D2E6300C3
:100C00002DE9F05F444FDFF81481DFF81491DFF82D
:100C100014A1DFF814B1454E0D460446B8422ED05B
:100C2000B4F1804F2BD0444529D04C4527D05445B2
:100C300025D05C4523D03E48844220D0B4421ED00B
:100C40003C4884421BD03C48844218D03B488442F4
:100C500015D03B48844212D03A4884420FD03A48DB
:100C600084420CD03948844209D03948844206D0A5
:100C70003848844203D0E72137A000F075F968882E
:100C800058B1102809D0202807D0402805D0602866
:100C900003D0E82130A000F067F9E88848B1B0F54A
:100CA000807F06D0B0F5007F03D0E9212AA000F0B4
:100CB0005BF92088BC420AD0B44208D0B4F1804F1E
:100CC00005D0444503D04C4501D0544503D120F014
:100CD0007001688808435C4506D015498C4203D0F2
:100CE00020F44071E88808432080A888A0852888DF
:100CF0002085BC420AD0B44208D01448844205D0B2
:100D00001348844202D01348844201D1287A2086B5
:100D10000120A082BDE8F09F002C014000040040AB
:100D200000080040000C004000100040003401406A
:100D300000140040004C01400050014000540140AC
:100D400000180040001C004000200040004001400E
:100D500000440140004801407372635C73746D335A
:100D600032663130785F74696D2E6300FEE70000F3
:100D70000FB4054B10B503A9044A029800F018F807
:100D800010BC5DF814FB0000A50F00080400002053
:100D900002E008C8121F08C1002AFAD17047704744
:100DA000002001E001C1121F002AFBD170470000A2
:100DB0002DE9FF4F8BB09A460F460546002606E008
:100DC00025280BD052460D9990476D1C761C28782B
:100DD0000028F5D10FB03046BDE8F08F0024A046C2
:100DE0000122604900E0044315F8013F203B02FA6C
:100DF00003F00842F7D128782E2817D115F8010FF3
:100E000044F004042A280ED06FF02F022878A0F1B5
:100E1000300109290AD808EB880102EB410100EBF7
:100E200001086D1CF2E757F8048B6D1C28786928BF
:100E30003ED006DC0028CDD063280BD0642804D136
:100E400036E0732810D075284BD052460D99904744
:100E5000761C85E017F8040B8DF8000000208DF853
:100E60000100E946012003E057F8049B4FF0FF30F2
:100E700061074FF0000401D40AE0641C44450DDA18
:100E80008442FADB19F804100029F6D106E0641C4C
:100E90008442FCDB19F804100029F8D1264404E050
:100EA00019F8010B52460D999047641EF8D257E08D
:100EB00001CF4FF00A0B002802DA40422D2102E058
:100EC000210504D52B218DF82410012103E0E10731
:100ED00005D02021F7E70DF1200908910CE0002151
:100EE000F9E701CF4FF00A0BF9E75946FFF71AF976
:100EF00001F1300209F8012D0028F6D1ADEB09000F
:100F000000F1200B600701D44FF00108D84502DD45
:100F1000A8EB0B0000E000208046002406E009A8B2
:100F20005246005D0D999047641C761C08988442D7
:100F3000F5DB04E0302052460D999047761CB8F15D
:100F40000001A8F10108F5DC05E019F8010B524693
:100F50000D999047761CBBF10001ABF1010BF4DC5D
:100F60006D1C34E7092801000A46014601A0FFF77D
:100F7000FFFEFEE757726F6E6720706172616D65EC
:100F8000746572732076616C75653A2066696C656C
:100F9000202573206F6E206C696E652025640D0A14
:100FA0000000000038B504468DF8000069460320B3
:100FB000ABBE204638BDFFF7F5FBFFF7DDF800F0CC
:100FC0004BF800F003F800F025F8FEE738B54FF4D1
:100FD000C0652846FFF76CFB1E208DF80000012439
:100FE0008DF8014000208DF802008DF8034068461E
:100FF000FFF70EFB2846FFF75BFB1D208DF8000076
:101000008DF801408DF802408DF803406846FFF7E7
:10101000FFFA38BD3EB50120ADF804001120ADF84F
:10102000000000200B4CADF80600ADF80200694648
:101030002046FFF7E5FD01212046FFF77DFC012258
:1010400011462046FFF75EFD01212046FFF7E4FC34
:101050003EBD0000000400403EB542F20F70ADF806
:1010600004004720ADF8000000200B4CADF806004E
:10107000ADF8020069462046FFF7C2FD0121204677
:10108000FFF75AFC012211462046FFF73BFD0121E4
:101090002046FFF7C1FC3EBD00080040BC10000820
:1010A0000000002008000000900D0008C410000897
:1010B0000800002000040000A00D0008007E0000D1
:0410C000000000002C
:0400000508000101ED
:00000001FF
